{
  "contractName": "BridgeBase",
  "abi": [
    {
      "inputs": [
        {
          "internalType": "address",
          "name": "_token",
          "type": "address"
        }
      ],
      "stateMutability": "nonpayable",
      "type": "constructor"
    },
    {
      "anonymous": false,
      "inputs": [
        {
          "indexed": false,
          "internalType": "address",
          "name": "from",
          "type": "address"
        },
        {
          "indexed": false,
          "internalType": "address",
          "name": "to",
          "type": "address"
        },
        {
          "indexed": false,
          "internalType": "uint256",
          "name": "amount",
          "type": "uint256"
        },
        {
          "indexed": false,
          "internalType": "uint256",
          "name": "date",
          "type": "uint256"
        },
        {
          "indexed": false,
          "internalType": "uint256",
          "name": "nonce",
          "type": "uint256"
        },
        {
          "indexed": true,
          "internalType": "enum BridgeBase.Step",
          "name": "step",
          "type": "uint8"
        }
      ],
      "name": "Transfer",
      "type": "event"
    },
    {
      "inputs": [],
      "name": "admin",
      "outputs": [
        {
          "internalType": "address",
          "name": "",
          "type": "address"
        }
      ],
      "stateMutability": "view",
      "type": "function"
    },
    {
      "inputs": [],
      "name": "nonce",
      "outputs": [
        {
          "internalType": "uint256",
          "name": "",
          "type": "uint256"
        }
      ],
      "stateMutability": "view",
      "type": "function"
    },
    {
      "inputs": [
        {
          "internalType": "uint256",
          "name": "",
          "type": "uint256"
        }
      ],
      "name": "processedNonces",
      "outputs": [
        {
          "internalType": "bool",
          "name": "",
          "type": "bool"
        }
      ],
      "stateMutability": "view",
      "type": "function"
    },
    {
      "inputs": [],
      "name": "token",
      "outputs": [
        {
          "internalType": "contract IToken",
          "name": "",
          "type": "address"
        }
      ],
      "stateMutability": "view",
      "type": "function"
    },
    {
      "inputs": [
        {
          "internalType": "address",
          "name": "to",
          "type": "address"
        },
        {
          "internalType": "uint256",
          "name": "amount",
          "type": "uint256"
        }
      ],
      "name": "burn",
      "outputs": [],
      "stateMutability": "nonpayable",
      "type": "function"
    },
    {
      "inputs": [
        {
          "internalType": "address",
          "name": "to",
          "type": "address"
        },
        {
          "internalType": "uint256",
          "name": "amount",
          "type": "uint256"
        },
        {
          "internalType": "uint256",
          "name": "otherChainNonce",
          "type": "uint256"
        }
      ],
      "name": "mint",
      "outputs": [],
      "stateMutability": "nonpayable",
      "type": "function"
    }
  ],
  "bytecode": "0x608060405234801561001057600080fd5b50604051610a56380380610a56833981810160405281019061003291906100ce565b336000806101000a81548173ffffffffffffffffffffffffffffffffffffffff021916908373ffffffffffffffffffffffffffffffffffffffff16021790555080600160006101000a81548173ffffffffffffffffffffffffffffffffffffffff021916908373ffffffffffffffffffffffffffffffffffffffff16021790555050610140565b6000815190506100c881610129565b92915050565b6000602082840312156100e057600080fd5b60006100ee848285016100b9565b91505092915050565b600061010282610109565b9050919050565b600073ffffffffffffffffffffffffffffffffffffffff82169050919050565b610132816100f7565b811461013d57600080fd5b50565b6109078061014f6000396000f3fe608060405234801561001057600080fd5b50600436106100625760003560e01c8063156e29f61461006757806391dae519146100835780639dc29fac146100b3578063affed0e0146100cf578063f851a440146100ed578063fc0c546a1461010b575b600080fd5b610081600480360381019061007c9190610552565b610129565b005b61009d600480360381019061009891906105a1565b610356565b6040516100aa919061071d565b60405180910390f35b6100cd60048036038101906100c89190610516565b610376565b005b6100d761049c565b6040516100e49190610793565b60405180910390f35b6100f56104a2565b6040516101029190610686565b60405180910390f35b6101136104c6565b6040516101209190610738565b60405180910390f35b60008054906101000a900473ffffffffffffffffffffffffffffffffffffffff1673ffffffffffffffffffffffffffffffffffffffff163373ffffffffffffffffffffffffffffffffffffffff16146101b7576040517f08c379a00000000000000000000000000000000000000000000000000000000081526004016101ae90610753565b60405180910390fd5b600015156003600083815260200190815260200160002060009054906101000a900460ff1615151461021e576040517f08c379a000000000000000000000000000000000000000000000000000000000815260040161021590610773565b60405180910390fd5b60016003600083815260200190815260200160002060006101000a81548160ff021916908315150217905550600160009054906101000a900473ffffffffffffffffffffffffffffffffffffffff1673ffffffffffffffffffffffffffffffffffffffff166340c10f1984846040518363ffffffff1660e01b81526004016102a79291906106f4565b600060405180830381600087803b1580156102c157600080fd5b505af11580156102d5573d6000803e3d6000fd5b50505050600180811115610312577f4e487b7100000000000000000000000000000000000000000000000000000000600052602160045260246000fd5b7f27757542a5e1b9e8cef80f584e094d4eb63b9802f355c61b3640b71b618d5c8e33858542866040516103499594939291906106a1565b60405180910390a2505050565b60036020528060005260406000206000915054906101000a900460ff1681565b600160009054906101000a900473ffffffffffffffffffffffffffffffffffffffff1673ffffffffffffffffffffffffffffffffffffffff16639dc29fac33836040518363ffffffff1660e01b81526004016103d39291906106f4565b600060405180830381600087803b1580156103ed57600080fd5b505af1158015610401573d6000803e3d6000fd5b505050506000600181111561043f577f4e487b7100000000000000000000000000000000000000000000000000000000600052602160045260246000fd5b7f27757542a5e1b9e8cef80f584e094d4eb63b9802f355c61b3640b71b618d5c8e338484426002546040516104789594939291906106a1565b60405180910390a2600260008154809291906104939061082b565b91905055505050565b60025481565b60008054906101000a900473ffffffffffffffffffffffffffffffffffffffff1681565b600160009054906101000a900473ffffffffffffffffffffffffffffffffffffffff1681565b6000813590506104fb816108a3565b92915050565b600081359050610510816108ba565b92915050565b6000806040838503121561052957600080fd5b6000610537858286016104ec565b925050602061054885828601610501565b9150509250929050565b60008060006060848603121561056757600080fd5b6000610575868287016104ec565b935050602061058686828701610501565b925050604061059786828701610501565b9150509250925092565b6000602082840312156105b357600080fd5b60006105c184828501610501565b91505092915050565b6105d3816107bf565b82525050565b6105e2816107d1565b82525050565b6105f181610807565b82525050565b6000610604600a836107ae565b91507f6f6e6c792061646d696e000000000000000000000000000000000000000000006000830152602082019050919050565b60006106446013836107ae565b91507f7472616e73666572202070726f636573736564000000000000000000000000006000830152602082019050919050565b610680816107fd565b82525050565b600060208201905061069b60008301846105ca565b92915050565b600060a0820190506106b660008301886105ca565b6106c360208301876105ca565b6106d06040830186610677565b6106dd6060830185610677565b6106ea6080830184610677565b9695505050505050565b600060408201905061070960008301856105ca565b6107166020830184610677565b9392505050565b600060208201905061073260008301846105d9565b92915050565b600060208201905061074d60008301846105e8565b92915050565b6000602082019050818103600083015261076c816105f7565b9050919050565b6000602082019050818103600083015261078c81610637565b9050919050565b60006020820190506107a86000830184610677565b92915050565b600082825260208201905092915050565b60006107ca826107dd565b9050919050565b60008115159050919050565b600073ffffffffffffffffffffffffffffffffffffffff82169050919050565b6000819050919050565b600061081282610819565b9050919050565b6000610824826107dd565b9050919050565b6000610836826107fd565b91507fffffffffffffffffffffffffffffffffffffffffffffffffffffffffffffffff82141561086957610868610874565b5b600182019050919050565b7f4e487b7100000000000000000000000000000000000000000000000000000000600052601160045260246000fd5b6108ac816107bf565b81146108b757600080fd5b50565b6108c3816107fd565b81146108ce57600080fd5b5056fea26469706673582212203ee73f8331c1e8493f8072f3e8c866fc6d5ca4ab1903505e3b94cabab46a98c964736f6c63430008000033",
  "immutableReferences": {},
  "source": "\r\n// QUALQUER PESSOA PODE CHAMAR A FUNO BURN, MAS APENAS A API PODE CHAMAR A FUNO MINT\r\n// Para trocar crdt por bcrdt\r\n// 1 invoca a funo burn da BridgeEth para queimar o token na rede ethereum\r\n//2 emite um evento para a api para avisar que o token foi queimado\r\n// 3 api chama a funo mint\r\npragma solidity ^0.8.0;\r\n\r\nimport '@openzeppelin/contracts/token/ERC20/IERC20.sol';\r\nimport './Itoken.sol';\r\n\r\ncontract BridgeBase {\r\n  // admin address controlled by the bridge api\r\n  address public admin;\r\n  \r\n  //  uma interface para o token crdt se for bridgeEth ou bcrdt se for BridgeBsc\r\n  IToken public token;\r\n  \r\n  // evita que a mesma transao seja processada duas vezes.\r\n  uint public nonce;\r\n  \r\n  // vai armazenar qual nonce foi processado\r\n  mapping(uint => bool) public processedNonces;\r\n\r\n  // fixa o processo se  burn ou mint\r\n  enum Step { Burn, Mint }\r\n\r\n  /* muito importante. So as informaes do evento. Vai dizer \r\n  qual endereo enviou, para onde, a quantidade, a data, o nonce da transao\r\n  e se  uma transao de mint ou burn\r\n  */\r\n  event Transfer(\r\n    address from,\r\n    address to,\r\n    uint amount,\r\n    uint date,\r\n    uint nonce,\r\n    Step indexed step\r\n  );\r\n\r\n  /* o contrato bridge recebe no construtor o endereo do token que ser queimado ou mintado\r\n  Se for BridgeEth ser o crdt, se for BridgeBsc ser bcrdt \r\n  */\r\n  constructor(address _token) {\r\n    admin = msg.sender;\r\n    // instancia duas funes do token, ou seja mint e burn\r\n    token = IToken(_token);\r\n  }\r\n\r\n// no pode confundir o argumento que a burn do bridge recebe com o burn do token\r\n// vai ser chamada pelo script e emitir o evento Transfer que ser ouvido pela Api.\r\n  // qualquer um pode chamar a funo burn\r\n // QUANDO FAZ O BURN EMITE O EVENTO TRANSFER\r\n  function burn(address to, uint amount) external {\r\n    \r\n   // instanciao do token\r\n   // token.burn recebe a quantidade que ser queimada e de quem  essa quantidade.\r\n    token.burn(msg.sender, amount);\r\n    \r\n    emit Transfer(\r\n      msg.sender,\r\n      to,\r\n      amount,\r\n      block.timestamp,\r\n      // cada transferncia ter um nico nonce\r\n      nonce,\r\n      Step.Burn\r\n    );\r\n    nonce++;\r\n  }\r\n\r\n // apenas a bridge api deve poder chamar a funo mint. \r\n  function mint(address to, uint amount, uint otherChainNonce) external {\r\n  require(msg.sender == admin, 'only admin');\r\n  \r\n  // verifica se o nonce no foi processado, se tiver true d um erro\r\n  require(processedNonces[otherChainNonce] == false, 'transfer  processed');\r\n  // atualiza o mapping dizendo que aquele nonce agora foi processado.\r\n  \r\n  processedNonces[otherChainNonce] = true;\r\n    \r\n    // minta o token\r\n    token.mint(to, amount);\r\n    \r\n    emit Transfer(\r\n      msg.sender,\r\n      to,\r\n      amount,\r\n      block.timestamp,\r\n      otherChainNonce,\r\n      Step.Mint\r\n    );\r\n  }\r\n}\r\n",
  "sourcePath": "C:\\Users\\Gamer I5\\crdtb\\contracts\\BridgeBase.sol",
  "compiler": {
    "name": "solc",
    "version": "0.8.0+commit.c7dfd78e.Emscripten.clang"
  },
  "schemaVersion": "3.4.3",
  "updatedAt": "2021-09-09T09:24:58.780Z",
  "devdoc": {
    "kind": "dev",
    "methods": {},
    "version": 1
  },
  "userdoc": {
    "kind": "user",
    "methods": {},
    "version": 1
  }
}