{
  "contractName": "ERC20",
  "abi": [
    {
      "inputs": [],
      "stateMutability": "nonpayable",
      "type": "constructor"
    },
    {
      "anonymous": false,
      "inputs": [
        {
          "indexed": true,
          "internalType": "address",
          "name": "owner",
          "type": "address"
        },
        {
          "indexed": true,
          "internalType": "address",
          "name": "spender",
          "type": "address"
        },
        {
          "indexed": false,
          "internalType": "uint256",
          "name": "value",
          "type": "uint256"
        }
      ],
      "name": "Approval",
      "type": "event"
    },
    {
      "anonymous": false,
      "inputs": [
        {
          "indexed": true,
          "internalType": "address",
          "name": "previousOwner",
          "type": "address"
        },
        {
          "indexed": true,
          "internalType": "address",
          "name": "newOwner",
          "type": "address"
        }
      ],
      "name": "OwnershipTransferred",
      "type": "event"
    },
    {
      "anonymous": false,
      "inputs": [
        {
          "indexed": false,
          "internalType": "address",
          "name": "account",
          "type": "address"
        }
      ],
      "name": "Paused",
      "type": "event"
    },
    {
      "anonymous": false,
      "inputs": [
        {
          "indexed": false,
          "internalType": "address",
          "name": "owner",
          "type": "address"
        },
        {
          "indexed": false,
          "internalType": "uint256",
          "name": "amount",
          "type": "uint256"
        }
      ],
      "name": "Redeem",
      "type": "event"
    },
    {
      "anonymous": false,
      "inputs": [
        {
          "indexed": true,
          "internalType": "address",
          "name": "from",
          "type": "address"
        },
        {
          "indexed": true,
          "internalType": "address",
          "name": "to",
          "type": "address"
        },
        {
          "indexed": false,
          "internalType": "uint256",
          "name": "value",
          "type": "uint256"
        }
      ],
      "name": "Transfer",
      "type": "event"
    },
    {
      "anonymous": false,
      "inputs": [
        {
          "indexed": true,
          "internalType": "address",
          "name": "from",
          "type": "address"
        },
        {
          "indexed": true,
          "internalType": "address",
          "name": "to",
          "type": "address"
        },
        {
          "indexed": false,
          "internalType": "uint256",
          "name": "value",
          "type": "uint256"
        }
      ],
      "name": "TransferFrom",
      "type": "event"
    },
    {
      "anonymous": false,
      "inputs": [
        {
          "indexed": false,
          "internalType": "address",
          "name": "account",
          "type": "address"
        }
      ],
      "name": "Unpaused",
      "type": "event"
    },
    {
      "inputs": [],
      "name": "owner",
      "outputs": [
        {
          "internalType": "address",
          "name": "",
          "type": "address"
        }
      ],
      "stateMutability": "view",
      "type": "function"
    },
    {
      "inputs": [],
      "name": "pause",
      "outputs": [],
      "stateMutability": "nonpayable",
      "type": "function"
    },
    {
      "inputs": [],
      "name": "paused",
      "outputs": [
        {
          "internalType": "bool",
          "name": "",
          "type": "bool"
        }
      ],
      "stateMutability": "view",
      "type": "function"
    },
    {
      "inputs": [],
      "name": "renounceOwnership",
      "outputs": [],
      "stateMutability": "nonpayable",
      "type": "function"
    },
    {
      "inputs": [
        {
          "internalType": "address",
          "name": "newOwner",
          "type": "address"
        }
      ],
      "name": "transferOwnership",
      "outputs": [],
      "stateMutability": "nonpayable",
      "type": "function"
    },
    {
      "inputs": [],
      "name": "unpause",
      "outputs": [],
      "stateMutability": "nonpayable",
      "type": "function"
    },
    {
      "inputs": [],
      "name": "pay",
      "outputs": [],
      "stateMutability": "payable",
      "type": "function"
    },
    {
      "inputs": [],
      "name": "name",
      "outputs": [
        {
          "internalType": "string",
          "name": "",
          "type": "string"
        }
      ],
      "stateMutability": "view",
      "type": "function"
    },
    {
      "inputs": [],
      "name": "symbol",
      "outputs": [
        {
          "internalType": "string",
          "name": "",
          "type": "string"
        }
      ],
      "stateMutability": "view",
      "type": "function"
    },
    {
      "inputs": [],
      "name": "decimals",
      "outputs": [
        {
          "internalType": "uint8",
          "name": "",
          "type": "uint8"
        }
      ],
      "stateMutability": "view",
      "type": "function"
    },
    {
      "inputs": [],
      "name": "totalSupply",
      "outputs": [
        {
          "internalType": "uint256",
          "name": "",
          "type": "uint256"
        }
      ],
      "stateMutability": "view",
      "type": "function"
    },
    {
      "inputs": [
        {
          "internalType": "address",
          "name": "account",
          "type": "address"
        }
      ],
      "name": "balanceOf",
      "outputs": [
        {
          "internalType": "uint256",
          "name": "",
          "type": "uint256"
        }
      ],
      "stateMutability": "view",
      "type": "function"
    },
    {
      "inputs": [
        {
          "internalType": "address",
          "name": "recipient",
          "type": "address"
        },
        {
          "internalType": "uint256",
          "name": "amount",
          "type": "uint256"
        }
      ],
      "name": "transfer",
      "outputs": [
        {
          "internalType": "bool",
          "name": "",
          "type": "bool"
        }
      ],
      "stateMutability": "nonpayable",
      "type": "function"
    },
    {
      "inputs": [
        {
          "internalType": "address",
          "name": "owner",
          "type": "address"
        },
        {
          "internalType": "address",
          "name": "spender",
          "type": "address"
        }
      ],
      "name": "allowance",
      "outputs": [
        {
          "internalType": "uint256",
          "name": "",
          "type": "uint256"
        }
      ],
      "stateMutability": "view",
      "type": "function"
    },
    {
      "inputs": [
        {
          "internalType": "address",
          "name": "spender",
          "type": "address"
        },
        {
          "internalType": "uint256",
          "name": "amount",
          "type": "uint256"
        }
      ],
      "name": "approve",
      "outputs": [
        {
          "internalType": "bool",
          "name": "",
          "type": "bool"
        }
      ],
      "stateMutability": "nonpayable",
      "type": "function"
    },
    {
      "inputs": [
        {
          "internalType": "address",
          "name": "sender",
          "type": "address"
        },
        {
          "internalType": "address",
          "name": "recipient",
          "type": "address"
        },
        {
          "internalType": "uint256",
          "name": "amount",
          "type": "uint256"
        }
      ],
      "name": "transferFrom",
      "outputs": [
        {
          "internalType": "bool",
          "name": "",
          "type": "bool"
        }
      ],
      "stateMutability": "nonpayable",
      "type": "function"
    },
    {
      "inputs": [
        {
          "internalType": "address",
          "name": "spender",
          "type": "address"
        },
        {
          "internalType": "uint256",
          "name": "addedValue",
          "type": "uint256"
        }
      ],
      "name": "increaseAllowance",
      "outputs": [
        {
          "internalType": "bool",
          "name": "",
          "type": "bool"
        }
      ],
      "stateMutability": "nonpayable",
      "type": "function"
    },
    {
      "inputs": [
        {
          "internalType": "address",
          "name": "spender",
          "type": "address"
        },
        {
          "internalType": "uint256",
          "name": "subtractedValue",
          "type": "uint256"
        }
      ],
      "name": "decreaseAllowance",
      "outputs": [
        {
          "internalType": "bool",
          "name": "",
          "type": "bool"
        }
      ],
      "stateMutability": "nonpayable",
      "type": "function"
    },
    {
      "inputs": [
        {
          "internalType": "uint256",
          "name": "amount",
          "type": "uint256"
        },
        {
          "internalType": "address",
          "name": "recepient",
          "type": "address"
        }
      ],
      "name": "mint",
      "outputs": [
        {
          "internalType": "bool",
          "name": "",
          "type": "bool"
        }
      ],
      "stateMutability": "nonpayable",
      "type": "function"
    },
    {
      "inputs": [
        {
          "internalType": "uint256",
          "name": "amount",
          "type": "uint256"
        }
      ],
      "name": "redeem",
      "outputs": [
        {
          "internalType": "bool",
          "name": "",
          "type": "bool"
        }
      ],
      "stateMutability": "nonpayable",
      "type": "function"
    }
  ],
  "bytecode": "0x60806040523480156200001157600080fd5b506000620000246200018660201b60201c565b9050806000806101000a81548173ffffffffffffffffffffffffffffffffffffffff021916908373ffffffffffffffffffffffffffffffffffffffff1602179055508073ffffffffffffffffffffffffffffffffffffffff16600073ffffffffffffffffffffffffffffffffffffffff167f8be0079c531659141344cd1fd0a4f28419497f9722a3daafe3b4186f6b6457e060405160405180910390a35060008060146101000a81548160ff0219169083151502179055506040518060400160405280600881526020017f435244542055534400000000000000000000000000000000000000000000000081525060049080519060200190620001299291906200018e565b506040518060400160405280600581526020017f534352445400000000000000000000000000000000000000000000000000000081525060059080519060200190620001779291906200018e565b506000600381905550620002a3565b600033905090565b8280546200019c906200023e565b90600052602060002090601f016020900481019282620001c057600085556200020c565b82601f10620001db57805160ff19168380011785556200020c565b828001600101855582156200020c579182015b828111156200020b578251825591602001919060010190620001ee565b5b5090506200021b91906200021f565b5090565b5b808211156200023a57600081600090555060010162000220565b5090565b600060028204905060018216806200025757607f821691505b602082108114156200026e576200026d62000274565b5b50919050565b7f4e487b7100000000000000000000000000000000000000000000000000000000600052602260045260246000fd5b61272680620002b36000396000f3fe60806040526004361061011f5760003560e01c8063715018a6116100a0578063a457c2d711610064578063a457c2d7146103a6578063a9059cbb146103e3578063db006a7514610420578063dd62ed3e1461045d578063f2fde38b1461049a5761011f565b8063715018a6146102e55780638456cb59146102fc5780638da5cb5b1461031357806394bf804d1461033e57806395d89b411461037b5761011f565b8063313ce567116100e7578063313ce567146101fe57806339509351146102295780633f4ba83a146102665780635c975abb1461027d57806370a08231146102a85761011f565b806306fdde0314610124578063095ea7b31461014f57806318160ddd1461018c5780631b9265b8146101b757806323b872dd146101c1575b600080fd5b34801561013057600080fd5b506101396104c3565b60405161014691906122bb565b60405180910390f35b34801561015b57600080fd5b5061017660048036038101906101719190611be4565b610555565b60405161018391906122a0565b60405180910390f35b34801561019857600080fd5b506101a16105bb565b6040516101ae91906124bd565b60405180910390f35b6101bf6105c5565b005b3480156101cd57600080fd5b506101e860048036038101906101e39190611b95565b6105c7565b6040516101f591906122a0565b60405180910390f35b34801561020a57600080fd5b5061021361077f565b60405161022091906124d8565b60405180910390f35b34801561023557600080fd5b50610250600480360381019061024b9190611be4565b610788565b60405161025d91906122a0565b60405180910390f35b34801561027257600080fd5b5061027b61087c565b005b34801561028957600080fd5b50610292610999565b60405161029f91906122a0565b60405180910390f35b3480156102b457600080fd5b506102cf60048036038101906102ca9190611b30565b6109af565b6040516102dc91906124bd565b60405180910390f35b3480156102f157600080fd5b506102fa6109f8565b005b34801561030857600080fd5b50610311610b32565b005b34801561031f57600080fd5b50610328610c51565b604051610335919061225c565b60405180910390f35b34801561034a57600080fd5b5061036560048036038101906103609190611c49565b610c7a565b60405161037291906122a0565b60405180910390f35b34801561038757600080fd5b50610390610d97565b60405161039d91906122bb565b60405180910390f35b3480156103b257600080fd5b506103cd60048036038101906103c89190611be4565b610e29565b6040516103da91906122a0565b60405180910390f35b3480156103ef57600080fd5b5061040a60048036038101906104059190611be4565b610f70565b60405161041791906122a0565b60405180910390f35b34801561042c57600080fd5b5061044760048036038101906104429190611c20565b610fd6565b60405161045491906122a0565b60405180910390f35b34801561046957600080fd5b50610484600480360381019061047f9190611b59565b611271565b60405161049191906124bd565b60405180910390f35b3480156104a657600080fd5b506104c160048036038101906104bc9190611b30565b6112f8565b005b6060600480546104d290612621565b80601f01602080910402602001604051908101604052809291908181526020018280546104fe90612621565b801561054b5780601f106105205761010080835404028352916020019161054b565b820191906000526020600020905b81548152906001019060200180831161052e57829003601f168201915b5050505050905090565b600061055f610999565b1561059f576040517f08c379a0000000000000000000000000000000000000000000000000000000008152600401610596906123dd565b60405180910390fd5b6105b16105aa6114a1565b84846114a9565b6001905092915050565b6000600354905090565b565b60006105d1610999565b15610611576040517f08c379a0000000000000000000000000000000000000000000000000000000008152600401610608906123dd565b60405180910390fd5b61061c848484611674565b6000600260008673ffffffffffffffffffffffffffffffffffffffff1673ffffffffffffffffffffffffffffffffffffffff16815260200190815260200160002060006106676114a1565b73ffffffffffffffffffffffffffffffffffffffff1673ffffffffffffffffffffffffffffffffffffffff168152602001908152602001600020549050828110156106e7576040517f08c379a00000000000000000000000000000000000000000000000000000000081526004016106de906123fd565b60405180910390fd5b6106fa838261193f90919063ffffffff16565b905061070e856107086114a1565b836114a9565b8373ffffffffffffffffffffffffffffffffffffffff168573ffffffffffffffffffffffffffffffffffffffff167fc0d84ce5c7ff9ca21adb0f8436ff3f4951b4bb78c4e2fae2b6837958b3946ffd8560405161076b91906124bd565b60405180910390a360019150509392505050565b60006012905090565b6000610792610999565b156107d2576040517f08c379a00000000000000000000000000000000000000000000000000000000081526004016107c9906123dd565b60405180910390fd5b6108726107dd6114a1565b8484600260006107eb6114a1565b73ffffffffffffffffffffffffffffffffffffffff1673ffffffffffffffffffffffffffffffffffffffff16815260200190815260200160002060008873ffffffffffffffffffffffffffffffffffffffff1673ffffffffffffffffffffffffffffffffffffffff1681526020019081526020016000205461086d919061250f565b6114a9565b6001905092915050565b610884610999565b6108c3576040517f08c379a00000000000000000000000000000000000000000000000000000000081526004016108ba9061231d565b60405180910390fd5b6108cb6114a1565b73ffffffffffffffffffffffffffffffffffffffff166108e9610c51565b73ffffffffffffffffffffffffffffffffffffffff161461093f576040517f08c379a00000000000000000000000000000000000000000000000000000000081526004016109369061241d565b60405180910390fd5b60008060146101000a81548160ff0219169083151502179055507f5db9ee0a495bf2e6ff9c91a7834c1ba4fdd244a5e8aa4e537bd38aeae4b073aa6109826114a1565b60405161098f919061225c565b60405180910390a1565b60008060149054906101000a900460ff16905090565b6000600160008373ffffffffffffffffffffffffffffffffffffffff1673ffffffffffffffffffffffffffffffffffffffff168152602001908152602001600020549050919050565b610a006114a1565b73ffffffffffffffffffffffffffffffffffffffff16610a1e610c51565b73ffffffffffffffffffffffffffffffffffffffff1614610a74576040517f08c379a0000000000000000000000000000000000000000000000000000000008152600401610a6b9061241d565b60405180910390fd5b600073ffffffffffffffffffffffffffffffffffffffff1660008054906101000a900473ffffffffffffffffffffffffffffffffffffffff1673ffffffffffffffffffffffffffffffffffffffff167f8be0079c531659141344cd1fd0a4f28419497f9722a3daafe3b4186f6b6457e060405160405180910390a360008060006101000a81548173ffffffffffffffffffffffffffffffffffffffff021916908373ffffffffffffffffffffffffffffffffffffffff160217905550565b610b3a610999565b15610b7a576040517f08c379a0000000000000000000000000000000000000000000000000000000008152600401610b71906123dd565b60405180910390fd5b610b826114a1565b73ffffffffffffffffffffffffffffffffffffffff16610ba0610c51565b73ffffffffffffffffffffffffffffffffffffffff1614610bf6576040517f08c379a0000000000000000000000000000000000000000000000000000000008152600401610bed9061241d565b60405180910390fd5b6001600060146101000a81548160ff0219169083151502179055507f62e78cea01bee320cd4e420270b5ea74000d11b0c9f74754ebdbfc544b05a258610c3a6114a1565b604051610c47919061225c565b60405180910390a1565b60008060009054906101000a900473ffffffffffffffffffffffffffffffffffffffff16905090565b6000610c846114a1565b73ffffffffffffffffffffffffffffffffffffffff16610ca2610c51565b73ffffffffffffffffffffffffffffffffffffffff1614610cf8576040517f08c379a0000000000000000000000000000000000000000000000000000000008152600401610cef9061241d565b60405180910390fd5b610d00610999565b15610d40576040517f08c379a0000000000000000000000000000000000000000000000000000000008152600401610d37906123dd565b60405180910390fd5b60008311610d83576040517f08c379a0000000000000000000000000000000000000000000000000000000008152600401610d7a906122fd565b60405180910390fd5b610d8d8284611955565b6001905092915050565b606060058054610da690612621565b80601f0160208091040260200160405190810160405280929190818152602001828054610dd290612621565b8015610e1f5780601f10610df457610100808354040283529160200191610e1f565b820191906000526020600020905b815481529060010190602001808311610e0257829003601f168201915b5050505050905090565b6000610e33610999565b15610e73576040517f08c379a0000000000000000000000000000000000000000000000000000000008152600401610e6a906123dd565b60405180910390fd5b600060026000610e816114a1565b73ffffffffffffffffffffffffffffffffffffffff1673ffffffffffffffffffffffffffffffffffffffff16815260200190815260200160002060008573ffffffffffffffffffffffffffffffffffffffff1673ffffffffffffffffffffffffffffffffffffffff16815260200190815260200160002054905082811015610f3e576040517f08c379a0000000000000000000000000000000000000000000000000000000008152600401610f359061247d565b60405180910390fd5b610f51838261193f90919063ffffffff16565b9050610f65610f5e6114a1565b85836114a9565b600191505092915050565b6000610f7a610999565b15610fba576040517f08c379a0000000000000000000000000000000000000000000000000000000008152600401610fb1906123dd565b60405180910390fd5b610fcc610fc56114a1565b8484611674565b6001905092915050565b6000610fe06114a1565b73ffffffffffffffffffffffffffffffffffffffff16610ffe610c51565b73ffffffffffffffffffffffffffffffffffffffff1614611054576040517f08c379a000000000000000000000000000000000000000000000000000000000815260040161104b9061241d565b60405180910390fd5b61105c610999565b1561109c576040517f08c379a0000000000000000000000000000000000000000000000000000000008152600401611093906123dd565b60405180910390fd5b8160035410156110e1576040517f08c379a00000000000000000000000000000000000000000000000000000000081526004016110d8906123bd565b60405180910390fd5b81600160006110ee6114a1565b73ffffffffffffffffffffffffffffffffffffffff1673ffffffffffffffffffffffffffffffffffffffff16815260200190815260200160002054101561116a576040517f08c379a00000000000000000000000000000000000000000000000000000000081526004016111619061237d565b60405180910390fd5b61117f8260035461193f90919063ffffffff16565b6003819055506111de82600160006111956114a1565b73ffffffffffffffffffffffffffffffffffffffff1673ffffffffffffffffffffffffffffffffffffffff1681526020019081526020016000205461193f90919063ffffffff16565b600160006111ea6114a1565b73ffffffffffffffffffffffffffffffffffffffff1673ffffffffffffffffffffffffffffffffffffffff168152602001908152602001600020819055507f222838db2794d11532d940e8dec38ae307ed0b63cd97c233322e221f998767a66112516114a1565b83604051611260929190612277565b60405180910390a160019050919050565b6000600260008473ffffffffffffffffffffffffffffffffffffffff1673ffffffffffffffffffffffffffffffffffffffff16815260200190815260200160002060008373ffffffffffffffffffffffffffffffffffffffff1673ffffffffffffffffffffffffffffffffffffffff16815260200190815260200160002054905092915050565b6113006114a1565b73ffffffffffffffffffffffffffffffffffffffff1661131e610c51565b73ffffffffffffffffffffffffffffffffffffffff1614611374576040517f08c379a000000000000000000000000000000000000000000000000000000000815260040161136b9061241d565b60405180910390fd5b600073ffffffffffffffffffffffffffffffffffffffff168173ffffffffffffffffffffffffffffffffffffffff1614156113e4576040517f08c379a00000000000000000000000000000000000000000000000000000000081526004016113db9061233d565b60405180910390fd5b8073ffffffffffffffffffffffffffffffffffffffff1660008054906101000a900473ffffffffffffffffffffffffffffffffffffffff1673ffffffffffffffffffffffffffffffffffffffff167f8be0079c531659141344cd1fd0a4f28419497f9722a3daafe3b4186f6b6457e060405160405180910390a3806000806101000a81548173ffffffffffffffffffffffffffffffffffffffff021916908373ffffffffffffffffffffffffffffffffffffffff16021790555050565b600033905090565b600073ffffffffffffffffffffffffffffffffffffffff168373ffffffffffffffffffffffffffffffffffffffff161415611519576040517f08c379a00000000000000000000000000000000000000000000000000000000081526004016115109061245d565b60405180910390fd5b600073ffffffffffffffffffffffffffffffffffffffff168273ffffffffffffffffffffffffffffffffffffffff161415611589576040517f08c379a00000000000000000000000000000000000000000000000000000000081526004016115809061235d565b60405180910390fd5b80600260008573ffffffffffffffffffffffffffffffffffffffff1673ffffffffffffffffffffffffffffffffffffffff16815260200190815260200160002060008473ffffffffffffffffffffffffffffffffffffffff1673ffffffffffffffffffffffffffffffffffffffff168152602001908152602001600020819055508173ffffffffffffffffffffffffffffffffffffffff168373ffffffffffffffffffffffffffffffffffffffff167f8c5be1e5ebec7d5bd14f71427d1e84f3dd0314c0f7b2291e5b200ac8c7c3b9258360405161166791906124bd565b60405180910390a3505050565b600073ffffffffffffffffffffffffffffffffffffffff168373ffffffffffffffffffffffffffffffffffffffff1614156116e4576040517f08c379a00000000000000000000000000000000000000000000000000000000081526004016116db9061243d565b60405180910390fd5b600073ffffffffffffffffffffffffffffffffffffffff168273ffffffffffffffffffffffffffffffffffffffff161415611754576040517f08c379a000000000000000000000000000000000000000000000000000000000815260040161174b906122dd565b60405180910390fd5b61175f838383611aeb565b6000600160008573ffffffffffffffffffffffffffffffffffffffff1673ffffffffffffffffffffffffffffffffffffffff168152602001908152602001600020549050818110156117e6576040517f08c379a00000000000000000000000000000000000000000000000000000000081526004016117dd9061239d565b60405180910390fd5b6117f9828261193f90919063ffffffff16565b905080600160008673ffffffffffffffffffffffffffffffffffffffff1673ffffffffffffffffffffffffffffffffffffffff1681526020019081526020016000208190555061189182600160008673ffffffffffffffffffffffffffffffffffffffff1673ffffffffffffffffffffffffffffffffffffffff16815260200190815260200160002054611af090919063ffffffff16565b600160008573ffffffffffffffffffffffffffffffffffffffff1673ffffffffffffffffffffffffffffffffffffffff168152602001908152602001600020819055508273ffffffffffffffffffffffffffffffffffffffff168473ffffffffffffffffffffffffffffffffffffffff167fddf252ad1be2c89b69c2b068fc378daa952ba7f163c4a11628f55a4df523b3ef8460405161193191906124bd565b60405180910390a350505050565b6000818361194d9190612565565b905092915050565b600073ffffffffffffffffffffffffffffffffffffffff168273ffffffffffffffffffffffffffffffffffffffff1614156119c5576040517f08c379a00000000000000000000000000000000000000000000000000000000081526004016119bc9061249d565b60405180910390fd5b6119d160008383611aeb565b6119e681600354611af090919063ffffffff16565b600381905550611a3e81600160008573ffffffffffffffffffffffffffffffffffffffff1673ffffffffffffffffffffffffffffffffffffffff16815260200190815260200160002054611af090919063ffffffff16565b600160008473ffffffffffffffffffffffffffffffffffffffff1673ffffffffffffffffffffffffffffffffffffffff168152602001908152602001600020819055508173ffffffffffffffffffffffffffffffffffffffff16600073ffffffffffffffffffffffffffffffffffffffff167fddf252ad1be2c89b69c2b068fc378daa952ba7f163c4a11628f55a4df523b3ef83604051611adf91906124bd565b60405180910390a35050565b505050565b60008183611afe919061250f565b905092915050565b600081359050611b15816126c2565b92915050565b600081359050611b2a816126d9565b92915050565b600060208284031215611b4257600080fd5b6000611b5084828501611b06565b91505092915050565b60008060408385031215611b6c57600080fd5b6000611b7a85828601611b06565b9250506020611b8b85828601611b06565b9150509250929050565b600080600060608486031215611baa57600080fd5b6000611bb886828701611b06565b9350506020611bc986828701611b06565b9250506040611bda86828701611b1b565b9150509250925092565b60008060408385031215611bf757600080fd5b6000611c0585828601611b06565b9250506020611c1685828601611b1b565b9150509250929050565b600060208284031215611c3257600080fd5b6000611c4084828501611b1b565b91505092915050565b60008060408385031215611c5c57600080fd5b6000611c6a85828601611b1b565b9250506020611c7b85828601611b06565b9150509250929050565b611c8e81612599565b82525050565b611c9d816125ab565b82525050565b6000611cae826124f3565b611cb881856124fe565b9350611cc88185602086016125ee565b611cd1816126b1565b840191505092915050565b6000611ce96023836124fe565b91507f45524332303a207472616e7366657220746f20746865207a65726f206164647260008301527f65737300000000000000000000000000000000000000000000000000000000006020830152604082019050919050565b6000611d4f6024836124fe565b91507f45524332303a20416d6f756e74206d757374206265206772656174657220746860008301527f616e2030000000000000000000000000000000000000000000000000000000006020830152604082019050919050565b6000611db56014836124fe565b91507f5061757361626c653a206e6f74207061757365640000000000000000000000006000830152602082019050919050565b6000611df56026836124fe565b91507f4f776e61626c653a206e6577206f776e657220697320746865207a65726f206160008301527f64647265737300000000000000000000000000000000000000000000000000006020830152604082019050919050565b6000611e5b6022836124fe565b91507f45524332303a20617070726f766520746f20746865207a65726f20616464726560008301527f73730000000000000000000000000000000000000000000000000000000000006020830152604082019050919050565b6000611ec1602d836124fe565b91507f45524332303a2054686520616d6f756e7420697320677265617465722074686160008301527f6e207468652062616c616e6365000000000000000000000000000000000000006020830152604082019050919050565b6000611f276026836124fe565b91507f45524332303a207472616e7366657220616d6f756e742065786365656473206260008301527f616c616e636500000000000000000000000000000000000000000000000000006020830152604082019050919050565b6000611f8d6034836124fe565b91507f45524332303a20546f74616c737570706c792063616e6e6f742062652067726560008301527f61746572207468616e2074686520616d6f756e740000000000000000000000006020830152604082019050919050565b6000611ff36010836124fe565b91507f5061757361626c653a20706175736564000000000000000000000000000000006000830152602082019050919050565b60006120336028836124fe565b91507f45524332303a207472616e7366657220616d6f756e742065786365656473206160008301527f6c6c6f77616e63650000000000000000000000000000000000000000000000006020830152604082019050919050565b60006120996020836124fe565b91507f4f776e61626c653a2063616c6c6572206973206e6f7420746865206f776e65726000830152602082019050919050565b60006120d96025836124fe565b91507f45524332303a207472616e736665722066726f6d20746865207a65726f20616460008301527f64726573730000000000000000000000000000000000000000000000000000006020830152604082019050919050565b600061213f6024836124fe565b91507f45524332303a20617070726f76652066726f6d20746865207a65726f2061646460008301527f72657373000000000000000000000000000000000000000000000000000000006020830152604082019050919050565b60006121a56025836124fe565b91507f45524332303a2064656372656173656420616c6c6f77616e63652062656c6f7760008301527f207a65726f0000000000000000000000000000000000000000000000000000006020830152604082019050919050565b600061220b601f836124fe565b91507f45524332303a206d696e7420746f20746865207a65726f2061646472657373006000830152602082019050919050565b612247816125d7565b82525050565b612256816125e1565b82525050565b60006020820190506122716000830184611c85565b92915050565b600060408201905061228c6000830185611c85565b612299602083018461223e565b9392505050565b60006020820190506122b56000830184611c94565b92915050565b600060208201905081810360008301526122d58184611ca3565b905092915050565b600060208201905081810360008301526122f681611cdc565b9050919050565b6000602082019050818103600083015261231681611d42565b9050919050565b6000602082019050818103600083015261233681611da8565b9050919050565b6000602082019050818103600083015261235681611de8565b9050919050565b6000602082019050818103600083015261237681611e4e565b9050919050565b6000602082019050818103600083015261239681611eb4565b9050919050565b600060208201905081810360008301526123b681611f1a565b9050919050565b600060208201905081810360008301526123d681611f80565b9050919050565b600060208201905081810360008301526123f681611fe6565b9050919050565b6000602082019050818103600083015261241681612026565b9050919050565b600060208201905081810360008301526124368161208c565b9050919050565b60006020820190508181036000830152612456816120cc565b9050919050565b6000602082019050818103600083015261247681612132565b9050919050565b6000602082019050818103600083015261249681612198565b9050919050565b600060208201905081810360008301526124b6816121fe565b9050919050565b60006020820190506124d2600083018461223e565b92915050565b60006020820190506124ed600083018461224d565b92915050565b600081519050919050565b600082825260208201905092915050565b600061251a826125d7565b9150612525836125d7565b9250827fffffffffffffffffffffffffffffffffffffffffffffffffffffffffffffffff0382111561255a57612559612653565b5b828201905092915050565b6000612570826125d7565b915061257b836125d7565b92508282101561258e5761258d612653565b5b828203905092915050565b60006125a4826125b7565b9050919050565b60008115159050919050565b600073ffffffffffffffffffffffffffffffffffffffff82169050919050565b6000819050919050565b600060ff82169050919050565b60005b8381101561260c5780820151818401526020810190506125f1565b8381111561261b576000848401525b50505050565b6000600282049050600182168061263957607f821691505b6020821081141561264d5761264c612682565b5b50919050565b7f4e487b7100000000000000000000000000000000000000000000000000000000600052601160045260246000fd5b7f4e487b7100000000000000000000000000000000000000000000000000000000600052602260045260246000fd5b6000601f19601f8301169050919050565b6126cb81612599565b81146126d657600080fd5b50565b6126e2816125d7565b81146126ed57600080fd5b5056fea264697066735822122040c08eef302bdee06dc65dfa428167822147cec756d4b6062da90e20a6d1ea0864736f6c63430008000033",
  "immutableReferences": {},
  "source": "/**\r\n *Submitted for verification at Etherscan.io on 2021-03-11\r\n*/\r\n\r\n// SPDX-License-Identifier: MIT\r\npragma solidity ^0.8.0;\r\n\r\n/*\r\nINTERFACE ERC20\r\n*/\r\ninterface IERC20 {\r\n    function totalSupply() external view returns (uint256);\r\n\r\n    function balanceOf(address account) external view returns (uint256);\r\n\r\n    function transfer(address recipient, uint256 amount) external returns (bool);\r\n\r\n    function allowance(address owner, address spender) external view returns (uint256);\r\n\r\n    function approve(address spender, uint256 amount) external returns (bool);\r\n    \r\n    function transferFrom(address sender, address recipient, uint256 amount) external returns (bool);\r\n\r\n    event Transfer(address indexed from, address indexed to, uint256 value);\r\n\r\n    event Approval(address indexed owner, address indexed spender, uint256 value);\r\n    \r\n    event TransferFrom(address indexed from, address indexed to, uint256 value);\r\n}\r\n\r\n/**\r\n * Context\r\n*/\r\nabstract contract Context {\r\n    function _msgSender() internal view virtual returns (address) {\r\n        return msg.sender;\r\n    }\r\n\r\n    function _msgData() internal view virtual returns (bytes calldata) {\r\n        this;\r\n        return msg.data;\r\n    }\r\n}\r\n\r\n//SAFE MATH\r\nlibrary SafeMath {\r\n   \r\n    function tryAdd(uint256 a, uint256 b) internal pure returns (bool, uint256) {\r\n        unchecked {\r\n            uint256 c = a + b;\r\n            if (c < a) return (false, 0);\r\n            return (true, c);\r\n        }\r\n    }\r\n\r\n    function trySub(uint256 a, uint256 b) internal pure returns (bool, uint256) {\r\n        unchecked {\r\n            if (b > a) return (false, 0);\r\n            return (true, a - b);\r\n        }\r\n    }\r\n\r\n    function tryMul(uint256 a, uint256 b) internal pure returns (bool, uint256) {\r\n        unchecked {\r\n            if (a == 0) return (true, 0);\r\n            uint256 c = a * b;\r\n            if (c / a != b) return (false, 0);\r\n            return (true, c);\r\n        }\r\n    }\r\n\r\n    function tryDiv(uint256 a, uint256 b) internal pure returns (bool, uint256) {\r\n        unchecked {\r\n            if (b == 0) return (false, 0);\r\n            return (true, a / b);\r\n        }\r\n    }\r\n\r\n\r\n    function tryMod(uint256 a, uint256 b) internal pure returns (bool, uint256) {\r\n        unchecked {\r\n            if (b == 0) return (false, 0);\r\n            return (true, a % b);\r\n        }\r\n    }\r\n\r\n    function add(uint256 a, uint256 b) internal pure returns (uint256) {\r\n        return a + b;\r\n    }\r\n\r\n    function sub(uint256 a, uint256 b) internal pure returns (uint256) {\r\n        return a - b;\r\n    }\r\n\r\n    function mul(uint256 a, uint256 b) internal pure returns (uint256) {\r\n        return a * b;\r\n    }\r\n\r\n    function div(uint256 a, uint256 b) internal pure returns (uint256) {\r\n        return a / b;\r\n    }\r\n\r\n    function mod(uint256 a, uint256 b) internal pure returns (uint256) {\r\n        return a % b;\r\n    }\r\n\r\n    function sub(uint256 a, uint256 b, string memory errorMessage) internal pure returns (uint256) {\r\n        unchecked {\r\n            require(b <= a, errorMessage);\r\n            return a - b;\r\n        }\r\n    }\r\n\r\n    function div(uint256 a, uint256 b, string memory errorMessage) internal pure returns (uint256) {\r\n        unchecked {\r\n            require(b > 0, errorMessage);\r\n            return a / b;\r\n        }\r\n    }\r\n\r\n    function mod(uint256 a, uint256 b, string memory errorMessage) internal pure returns (uint256) {\r\n        unchecked {\r\n            require(b > 0, errorMessage);\r\n            return a % b;\r\n        }\r\n    }\r\n}\r\n\r\n//OWNABLE\r\nabstract contract Ownable is Context {\r\n    address private _owner;\r\n\r\n    event OwnershipTransferred(address indexed previousOwner, address indexed newOwner);\r\n\r\n    constructor () {\r\n        address msgSender = _msgSender();\r\n        _owner = msgSender;\r\n        emit OwnershipTransferred(address(0), msgSender);\r\n    }\r\n\r\n    function owner() public view virtual returns (address) {\r\n        return _owner;\r\n    }\r\n\r\n    modifier onlyOwner() {\r\n        require(owner() == _msgSender(), \"Ownable: caller is not the owner\");\r\n        _;\r\n    }\r\n\r\n    function renounceOwnership() public virtual onlyOwner {\r\n        emit OwnershipTransferred(_owner, address(0));\r\n        _owner = address(0);\r\n    }\r\n\r\n    function transferOwnership(address newOwner) public virtual onlyOwner {\r\n        require(newOwner != address(0), \"Ownable: new owner is the zero address\");\r\n        emit OwnershipTransferred(_owner, newOwner);\r\n        _owner = newOwner;\r\n    }\r\n}\r\n\r\nabstract contract Pausable is Ownable {\r\n    event Paused(address account);\r\n    event Unpaused(address account);\r\n    \r\n    bool private _paused;\r\n\r\n    constructor () {\r\n        _paused = false;\r\n    }\r\n\r\n    function paused() public view virtual returns (bool) {\r\n        return _paused;\r\n    }\r\n\r\n    modifier whenNotPaused() {\r\n        require(!paused(), \"Pausable: paused\");\r\n        _;\r\n    }\r\n\r\n    modifier whenPaused() {\r\n        require(paused(), \"Pausable: not paused\");\r\n        _;\r\n    }\r\n\r\n    function pause() public virtual whenNotPaused onlyOwner {\r\n        _paused = true;\r\n        emit Paused(_msgSender());\r\n    }\r\n\r\n    function unpause() public virtual whenPaused onlyOwner {\r\n        _paused = false;\r\n        emit Unpaused(_msgSender());\r\n    }\r\n}\r\n\r\n/**\r\n * TOKEN ERC20\r\n*/\r\ncontract ERC20 is Context, IERC20, Pausable {\r\n    \r\n    using SafeMath for uint256;\r\n    \r\n    mapping (address => uint256) private _balances;\r\n\r\n    mapping (address => mapping (address => uint256)) private _allowances;\r\n\r\n    uint256 private _totalSupply;\r\n\r\n    string private _name;\r\n    string private _symbol;\r\n    \r\n    event Redeem(address owner,  uint amount);\r\n\r\n    constructor () {\r\n        _name = \"CRDT USD\";\r\n        _symbol = \"SCRDT\";\r\n        _totalSupply = 0;\r\n    }\r\n    \r\n    function pay() public payable {}\r\n\r\n    function name() public view virtual returns (string memory) {\r\n        return _name;\r\n    }\r\n\r\n    function symbol() public view virtual returns (string memory) {\r\n        return _symbol;\r\n    }\r\n\r\n    function decimals() public view virtual returns (uint8) {\r\n        return 18;\r\n    }\r\n\r\n    function totalSupply() public view virtual override returns (uint256) {\r\n        return _totalSupply;\r\n    }\r\n\r\n    function balanceOf(address account) public view virtual override returns (uint256) {\r\n        return _balances[account];\r\n    }\r\n    \r\n    function transfer(address recipient, uint256 amount) public whenNotPaused virtual override returns (bool) {\r\n        _transfer(_msgSender(), recipient, amount);\r\n        return true;\r\n    }\r\n    \r\n    function allowance(address owner, address spender) public view virtual override returns (uint256) {\r\n        return _allowances[owner][spender];\r\n    }\r\n    \r\n\r\n    function approve(address spender, uint256 amount) public whenNotPaused virtual override returns (bool) {\r\n        _approve(_msgSender(), spender, amount);\r\n        return true;\r\n    }\r\n    \r\n    function transferFrom(address sender, address recipient, uint256 amount) public whenNotPaused virtual override returns (bool) {\r\n        _transfer(sender, recipient, amount);\r\n\r\n        uint256 currentAllowance = _allowances[sender][_msgSender()];\r\n        require(currentAllowance >= amount, \"ERC20: transfer amount exceeds allowance\");\r\n        \r\n        currentAllowance = currentAllowance.sub(amount);\r\n        \r\n        _approve(sender, _msgSender(), currentAllowance);\r\n\r\n        emit TransferFrom(sender, recipient, amount);\r\n        \r\n        return true;\r\n    }\r\n    \r\n    function increaseAllowance(address spender, uint256 addedValue) public whenNotPaused virtual returns (bool) {\r\n        _approve(_msgSender(), spender, _allowances[_msgSender()][spender] + addedValue);\r\n        return true;\r\n    }\r\n    \r\n    function decreaseAllowance(address spender, uint256 subtractedValue) public whenNotPaused virtual returns (bool) {\r\n        uint256 currentAllowance = _allowances[_msgSender()][spender];\r\n        require(currentAllowance >= subtractedValue, \"ERC20: decreased allowance below zero\");\r\n        currentAllowance = currentAllowance.sub(subtractedValue);\r\n        _approve(_msgSender(), spender, currentAllowance);\r\n\r\n        return true;\r\n    }\r\n    \r\n    function mint(uint amount, address recepient) external onlyOwner whenNotPaused returns(bool) {\r\n        require(amount > 0, \"ERC20: Amount must be greater than 0\");\r\n        _mint(recepient, amount);\r\n        return true;\r\n    }\r\n    \r\n    function redeem(uint256 amount) external onlyOwner whenNotPaused returns (bool) {\r\n        require(_totalSupply >= amount, \"ERC20: Totalsupply cannot be greater than the amount\");\r\n        require(_balances[_msgSender()] >= amount, \"ERC20: The amount is greater than the balance\");\r\n        \r\n        _totalSupply = _totalSupply.sub(amount);\r\n        \r\n        _balances[_msgSender()] = _balances[_msgSender()].sub(amount);\r\n\r\n        emit Redeem(_msgSender(), amount);\r\n        \r\n        return true;\r\n    }\r\n    \r\n    function _transfer(address sender, address recipient, uint256 amount) internal virtual {\r\n        require(sender != address(0), \"ERC20: transfer from the zero address\");\r\n        require(recipient != address(0), \"ERC20: transfer to the zero address\");\r\n\r\n        _beforeTokenTransfer(sender, recipient, amount);\r\n\r\n        uint256 senderBalance = _balances[sender];\r\n        require(senderBalance >= amount, \"ERC20: transfer amount exceeds balance\");\r\n        \r\n        senderBalance = senderBalance.sub(amount);\r\n        _balances[sender] = senderBalance;\r\n        \r\n        _balances[recipient] = _balances[recipient].add(amount);\r\n        \r\n        emit Transfer(sender, recipient, amount);\r\n    }\r\n    \r\n    function _mint(address account, uint256 amount) internal virtual {\r\n        require(account != address(0), \"ERC20: mint to the zero address\");\r\n\r\n        _beforeTokenTransfer(address(0), account, amount);\r\n        \r\n        _totalSupply = _totalSupply.add(amount);\r\n        _balances[account] = _balances[account].add(amount);\r\n        emit Transfer(address(0), account, amount);\r\n    }\r\n    \r\n    function _approve(address owner, address spender, uint256 amount) internal virtual {\r\n        require(owner != address(0), \"ERC20: approve from the zero address\");\r\n        require(spender != address(0), \"ERC20: approve to the zero address\");\r\n\r\n        _allowances[owner][spender] = amount;\r\n        emit Approval(owner, spender, amount);\r\n    }\r\n\r\n    function _beforeTokenTransfer(address from, address to, uint256 amount) internal virtual { }\r\n}",
  "sourcePath": "C:/Users/Gamer I5/crdtb/contracts/Scrdt.sol",
  "compiler": {
    "name": "solc",
    "version": "0.8.0+commit.c7dfd78e.Emscripten.clang"
  },
  "schemaVersion": "3.3.2",
  "updatedAt": "2021-07-05T00:53:39.816Z",
  "devdoc": {
    "kind": "dev",
    "methods": {},
    "version": 1
  },
  "userdoc": {
    "kind": "user",
    "methods": {},
    "notice": "TOKEN ERC20",
    "version": 1
  }
}